{"abi":[{"type":"function","name":"addPerson","inputs":[{"name":"_name","type":"string","internalType":"string"},{"name":"_favoriteNumber","type":"uint256","internalType":"uint256"}],"outputs":[],"stateMutability":"nonpayable"},{"type":"function","name":"listOfPeople","inputs":[{"name":"","type":"uint256","internalType":"uint256"}],"outputs":[{"name":"favoriteNumber","type":"uint256","internalType":"uint256"},{"name":"name","type":"string","internalType":"string"}],"stateMutability":"view"},{"type":"function","name":"nameToFavoriteNumber","inputs":[{"name":"","type":"string","internalType":"string"}],"outputs":[{"name":"","type":"uint256","internalType":"uint256"}],"stateMutability":"view"},{"type":"function","name":"retrieve","inputs":[],"outputs":[{"name":"","type":"uint256","internalType":"uint256"}],"stateMutability":"view"},{"type":"function","name":"store","inputs":[{"name":"_favoriteNumber","type":"uint256","internalType":"uint256"}],"outputs":[],"stateMutability":"nonpayable"}],"bytecode":{"object":"0x608060405234801561001057600080fd5b50610581806100206000396000f3fe608060405234801561001057600080fd5b50600436106100575760003560e01c80632e64cec11461005c5780632ebce631146100735780636057361d146100945780636f760f41146100a95780638bab8dd5146100bc575b600080fd5b6000545b6040519081526020015b60405180910390f35b610086610081366004610248565b6100e7565b60405161006a929190610285565b6100a76100a2366004610248565b600055565b005b6100a76100b7366004610362565b61019f565b6100606100ca3660046103a7565b805160208183018101805160028252928201919093012091525481565b600181815481106100f757600080fd5b6000918252602090912060029091020180546001820180549193509061011c906103e4565b80601f0160208091040260200160405190810160405280929190818152602001828054610148906103e4565b80156101955780601f1061016a57610100808354040283529160200191610195565b820191906000526020600020905b81548152906001019060200180831161017857829003601f168201915b5050505050905082565b6040805180820190915281815260208101838152600180548082018255600091909152825160029091027fb10e2d527612073b26eecdfd717e6a320cf44b4afac2b0732d9fcbe2b7fa0cf68101918255915190917fb10e2d527612073b26eecdfd717e6a320cf44b4afac2b0732d9fcbe2b7fa0cf70190610220908261046f565b50505080600283604051610234919061052f565b908152604051908190036020019020555050565b60006020828403121561025a57600080fd5b5035919050565b60005b8381101561027c578181015183820152602001610264565b50506000910152565b82815260406020820152600082518060408401526102aa816060850160208701610261565b601f01601f1916919091016060019392505050565b634e487b7160e01b600052604160045260246000fd5b600082601f8301126102e657600080fd5b813567ffffffffffffffff80821115610301576103016102bf565b604051601f8301601f19908116603f01168101908282118183101715610329576103296102bf565b8160405283815286602085880101111561034257600080fd5b836020870160208301376000602085830101528094505050505092915050565b6000806040838503121561037557600080fd5b823567ffffffffffffffff81111561038c57600080fd5b610398858286016102d5565b95602094909401359450505050565b6000602082840312156103b957600080fd5b813567ffffffffffffffff8111156103d057600080fd5b6103dc848285016102d5565b949350505050565b600181811c908216806103f857607f821691505b60208210810361041857634e487b7160e01b600052602260045260246000fd5b50919050565b601f82111561046a576000816000526020600020601f850160051c810160208610156104475750805b601f850160051c820191505b8181101561046657828155600101610453565b5050505b505050565b815167ffffffffffffffff811115610489576104896102bf565b61049d8161049784546103e4565b8461041e565b602080601f8311600181146104d257600084156104ba5750858301515b600019600386901b1c1916600185901b178555610466565b600085815260208120601f198616915b82811015610501578886015182559484019460019091019084016104e2565b508582101561051f5787850151600019600388901b60f8161c191681555b5050505050600190811b01905550565b60008251610541818460208701610261565b919091019291505056fea264697066735822122036f2abd13607bf5213df17152bd8c3a7605dbb8d4ed4e8bd7190c87accff5d8564736f6c63430008170033","linkReferences":{}},"methodIdentifiers":{"addPerson(string,uint256)":"6f760f41","listOfPeople(uint256)":"2ebce631","nameToFavoriteNumber(string)":"8bab8dd5","retrieve()":"2e64cec1","store(uint256)":"6057361d"},"id":17}